:020000040800F2
:10000000880B002001010008050100080701000815
:10001000090100080B0100080D01000800000000A4
:100020000000000000000000000000000F010008B8
:10003000110100080000000013010008150100086C
:100040001701000817010008170100081701000830
:100050001701000817010008170100081701000820
:100060001701000817010008170100081701000810
:100070001701000817010008170100081701000800
:1000800017010008170100081701000817010008F0
:1000900017010008170100081701000817010008E0
:1000A0001701000885120008170100081701000851
:1000B00017010008D51200081701000817010008F1
:1000C00017010008170100081701000817010008B0
:1000D00017010008D514000809160008A516000825
:1000E000170100081701000817010008DFF80CD0FD
:1000F00000F0FEFB00480047C5210008880B0020E7
:1001000005480047FEE7FEE7FEE7FEE7FEE7FEE7FD
:10011000FEE7FEE7FEE7FEE7ED00000840EA010328
:100120009B0703D009E008C9121F08C0042AFAD2AD
:1001300003E011F8013B00F8013B521EF9D2704771
:10014000F0B480EA0102D40F4200B2EB410F02D2B8
:100150000246084611464A0042D0C30DDDB2C1F343
:10016000C752AD1A202D35DAC1F3160141F4000251
:1001700004B15242C5F1200602FA06F12A411044A8
:10018000B3EBD05F23D0C4B1012DA0EBC35009DC89
:10019000F0BC4FF0004202EAC352DBB200F50000AF
:1001A00000F0CABA400000F1807000EBC350A0F12B
:1001B000807040EAD170490009E0490841EAC07105
:1001C000A0EBC35000F50000400800EBC350F0BCAA
:1001D00000F0A9BA6142012202EB4101001BF6E7DF
:1001E000F0BC704781F00041AAE780F00040A7E72B
:1001F00080EA010210B502F00043400022D04A001C
:100200001FD0010E01EB1261C0F35600C2F356027B
:1002100040F4000042F40002A0FB022000047F39F9
:10022000140400D0401C50EA124001D44000491E82
:10023000C2B20C0604EBD010401C4008802A02D049
:1002400003E0002010BD20F00100002900DA0020AA
:10025000184310BD2DE9FE4F804681EA0300C00F10
:100260000C46009021F0004123F00045B8EB02005D
:10027000A94105D24046214690461C460B460246FF
:1002800023F00040104347D0270DC7F30A00C3F303
:100290000A510290401A019040286BDAC3F3130010
:1002A00040F4801B0098924620B10023D2EB030A51
:1002B00063EB0B0B01985946C0F14002504600F029
:1002C00011FA06460D4650465946019A00F019FAB1
:1002D00010EB08006141002487EA115284EAE773B9
:1002E0001A4340D0009A62B3019A012A4FEA07529A
:1002F00015DC001B61EB02014FF0004202EA0752DD
:10030000CDE90042001C41F5801132462B4600F039
:1003100050FA03B0BDE8F08F40462146F9E7001BD4
:1003200061EB0201001C41F5801300185B412018AD
:10033000A2F5001747EB030140EAD570B6196D41ED
:1003400011E06D084FEA360645EAC0754FEA0752DC
:10035000001B61EB0201001C41F5801149084FEAC6
:1003600030000019514132462B4603B0BDE8F04F32
:1003700000F010BA0098012240000023D0EB0202E6
:1003800063EBE073009821464FEAE074B8EB00009D
:1003900061EB0401E9E783F000435BE781F0004192
:1003A00058E72DE9FE4F81EA030404F0004421F0F0
:1003B000004100944FF0000B23F0004350EA010489
:1003C0005ED052EA03045BD0C3F30A54C1F30A556A
:1003D0002C44A4F2F3340194A0FB0254C1F31301A2
:1003E00041F48011C3F3130343F4801301FB02446F
:1003F00000FB034E840A970A44EA815447EA835774
:10040000A4FB076802958D0A05FB07854FEA932C2C
:1004100004FB0C542705029D4FEA065847EA16379D
:10042000B5EB08056EEB070C870E920E47EA8117B5
:1004300042EA8312A7FB0201B6EB0B0164EB000456
:100440002B0D43EA0C335E1844EB1C50DA46514640
:10045000E7FB0201C5F313044FEA0B3343EA1453DD
:100460004FEA0432019C43EA0603A4F10C0402940F
:10047000009CCDE900B400F09CF903B0BDE8F08F1A
:1004800000200146F9E72DE9F04D81EA030404F06C
:10049000004B21F0004514464FF0000A23F00041C4
:1004A00050EA050220D054EA01021DD0C5F30A57D4
:1004B0000246C5F31303C1F31300C1F30A5640F417
:1004C000801543F48013A7EB0608101BD64608F2EC
:1004D000FD3873EB050002D308F1010801E0921822
:1004E0005B41B8F1000F03DA00200146BDE8F08D52
:1004F00000204FF48011064684460EE0171B73EB74
:10050000050705D3121B63EB050306434CEA010CF8
:1005100049084FEA300092185B4150EA0107EDD1DB
:1005200052EA030012D082EA040083EA050108437C
:1005300005D0101BAB4106D20122002306E00022A9
:100540004FF0004302E06FF0010253101AEB060077
:100550004CEB085110EB0A0041EB0B01BDE8F04DEC
:1005600000F018B9C10F80EAE0700844CA0796236A
:10057000002100F0E1B896230022114600F0DCB81B
:100580000EB5C10F80EAE0700844CA07002140F2AE
:1005900033438DE80E000A460B4600F00AF903B01B
:1005A00000BD00F0004220F00040C10DC0F3160075
:1005B00040F400007F2901DA00207047962903DC0F
:1005C000C1F19601C84001E096398840002AF4D074
:1005D0004042704720F00040C10DC0F3160040F4C7
:1005E00000007F2901DA00207047962903DCC1F161
:1005F0009601C840704796398840704700F0004225
:1006000030F000400AD0C10D01F56071C0F3160052
:1006100042EA0151C20840071143704700200146D9
:100620007047000030B5041E71F1000404DB4FF088
:100630000044404264EB0101141E73F1000405DB29
:100640001C464FF00043524263EB04038B4208BF49
:10065000824230BD30B5041E71F1000404DB4FF05E
:100660000044404264EB0101141E73F1000405DBF9
:100670001C464FF00043524263EB0403994208BF0B
:10068000904230BD01F0004330B421F0004150EA07
:10069000010206D00A0DA2F56072C1F31301002A0F
:1006A00002DC30BC00207047440F44EAC104C100A2
:1006B000E01830BC00EBC25000F035B8002801DB78
:1006C000C0F10040002901DBC1F1004181427047C7
:1006D000002801DBC0F10040002901DBC1F100412D
:1006E00088427047202A04DB203A00FA02F10020F9
:1006F00070479140C2F1200320FA03F31943904060
:100700007047202A06DBCB17203A41FA02F043EA71
:10071000E07306E041FA02F3D040C2F120029140BA
:100720000843194670470029A8BF7047401C49007C
:1007300008BF20F00100704710B4B0FA80FC00FA46
:100740000CF050EA010404BF10BC704749B1CCF171
:10075000200421FA04F411FA0CF118BF01212143FD
:100760000843A3EB0C01CB1D4FEA00614FEA1020B8
:1007700042BF002010BC704700EBC350104400295A
:10078000A4BF10BC7047401C490008BF20F0010006
:1007900010BC704710B5141E73F1000408DA401C39
:1007A00041F1000192185B411A4301D120F0010090
:1007B00010BD2DE9F04D92469B4611B1B1FA81F280
:1007C00002E0B0FA80F220329046FFF78BFF044639
:1007D0000F4640EA0A0041EA0B0153465A460843D5
:1007E00013D0114653EA010019D0C8F14002504617
:1007F00000F090F805460E46504659464246FFF72F
:1008000071FF084305D0012004E020463946BDE8C9
:10081000F08D0020054346EAE0762C4337430A98E2
:100820006305E40AA0EB08000022FD0A44EA4754ED
:100830000A3002D500200146E9E701051019694197
:10084000DDE9084500196941BDE8F04DA2E72DE951
:10085000F04D00231A461B1A8A4103DB0020014693
:10086000BDE8F08DC1F30A52C1F3130141F48015C4
:100870004FF0000BD10702D100186D41521E002726
:10088000044640F2FF11384601EB620A3E468046BC
:10089000024600204FF4801100F03CF8C21971416B
:1008A000BB1846EB0100B4EB030C75EB000C04D352
:1008B000E41A65EB000517460E46241908F10100FD
:1008C0006D4180463428E3DDF91946EB0600091B2B
:1008D000A84103D24FF0FF32134601E00022134635
:1008E0001BEB070046EB0A51BDE8F04DFFF752BF86
:1008F000064C074D06E0E06840F0010394E807006D
:1009000098471034AC42F6D3FFF7F4FB08230008F5
:1009100028230008202A04DB203A21FA02F00021D3
:10092000704721FA02F3D040C2F1200291400843FF
:100930001946704770B521F0004303430CD0C1F352
:100940000A550024D5EB040564EB0403D617AD1A51
:10095000B34102DB0020014670BD201841EB02517B
:1009600070BD00002DE9F04F87B004468946544819
:10097000D0F8400663286AD0514890F84406C0B9C0
:1009800050490968611A49434E4A5268A9EB02026C
:100990004C4B5B68A9EB030302FB0310FFF7F0FD70
:1009A000074601F03BFC05460022474BFFF752FE8D
:1009B0004AD246494968A1EB090101FB01F0FFF762
:1009C000DFFD82468B4641490968081BFFF7D8FDC9
:1009D000CDE900013D490968081BFFF7D1FD054637
:1009E00001F01CFC0746DDE90023FFF7DAFC524664
:1009F0005B46CDE90201FFF72DFC0022324BCDE929
:100A00000401FFF727FE1FD200202D4981F844067C
:100A10000846D0F8400641F830400846D0F8400675
:100A200001EBC000C0F8049028480460C0F80490AE
:100A30000846D0F84006401CC1F840060846D0F8E9
:100A40004C06401CC1F84C0600F03EFB35E01C484B
:100A500090F84506D0B91A48D0F84006184941F830
:100A600030400846D0F8400601EBC000C0F80490C2
:100A7000002081F84406012081F845060846D0F898
:100A80004C06401CC1F84C0600F01EFB0C4890F8C8
:100A9000460690B14FF44872094901F54870FFF7D6
:100AA0003DFB00200649C1F8400681F846060120BA
:100AB00081F84406002081F8450607B0BDE8F08FB4
:100AC000340100201C0000200000444024000020CD
:100AD00010B500F047F84FF4165001F077F84FF4D6
:100AE000E13000F035FF4FF4E13000F03DF94821EE
:100AF00044F6206000F0A0FC482142F2107000F0A3
:100B00006DFA482144F6206000F06CFC00BF0548F7
:100B1000007830B90448007818B9044800780028F3
:100B2000F5D010BD05000020080000200A000020BC
:100B300010B50023002105E00948405C184483B249
:100B4000481CC1B20829F7DB0548407A044C247AD6
:100B500040EA04229A4201D1012010BD0020FCE7A6
:100B6000300000200848806940F00800064988618C
:100B70000648006820F0FF00044908600846006845
:100B800040F033000860704700100240000C014044
:100B900070B504462248016A2046FFF78FFD19D838
:100BA0001F48016A2046FFF720FB05461D49FFF755
:100BB0008FFD09D21A48016A2046FFF716FB054649
:100BC0001949FFF70FFB70BD1548016A2046FFF772
:100BD0000CFBF8E71249086A1349FFF7B1FA064619
:100BE0002146FFF7FFFA05460E49FFF771FD0DD2CA
:100BF0000B49086A0C49FFF7A3FA06462146FFF79E
:100C0000F1FA05460849FFF7EDFADCE70449086AFE
:100C10000549FFF795FA05462146FFF7E3FAD2E7C3
:100C2000FC000020000034430000B44370B50020F5
:100C300036490870364800785E2865D134484078D7
:100C40000C2861D1FFF774FF00285DD03048C078D0
:100C500003281ED12E4840792D49097940EA012404
:100C60002B48C0792A49897940EA0125294620463E
:100C7000FFF778FE2748008800F00100002843D1E4
:100C8000254890F84606E0BB00F08CFA00F0C2FE62
:100C90003AE01F48C078072836D11D4840791C49E2
:100CA000097940EA01241A48C0791949897940EA4A
:100CB00001250120184981F84706A4F128001749A9
:100CC0000860A5F12800486029462046FFF74AFE43
:100CD0001148D0F84C06642816D80F48D0F84C06B6
:100CE000401EC2000C4901F54870FFF717FA0120B9
:100CF000094981F84406002081F8460600F052FABE
:100D000000E001E000F086FE70BD0000050000205C
:100D100030000020002C014034010020240000207D
:100D2000104991F8471689B10E4991F8461669B1F4
:100D30000C4991F8441649B90A49D1F84816094AAC
:100D400002EBC10206CAC0E9001270470549D1F89A
:100D5000482601F5487101EBC20206CAC0E900123B
:100D600000BFF2E73401002070B504462948B0FB0B
:100D7000F4F63046FFF7FFFB05462748806940F050
:100D80000800254988610846C06940F48020C86190
:100D90000846406940F0010048610846006940F497
:100DA000802008610846006920F4802008611B4803
:100DB000006820F47F40194908600846006840F444
:100DC0000B4008602846FFF705FC154908804220C3
:100DD000144948631248001F88631348C8630846D3
:100DE000006B43F2810108430E4908630C480C3044
:100DF000008840F040000A490C3108800223272275
:100E00000121002000F090F842F21C000449091D65
:100E1000088070BD0051250200100240040C014002
:100E200008480040000002408A0000202DE9F047F9
:100E30000446D4E90010FFF7D5F9A0604FF08040D8
:100E4000E168FFF7D5F98246A168FFF7CEF9814640
:100E50002169FFF775F98046216AFFF7C9F906464F
:100E6000A168E069FFF7C4F98146D4E90201FFF700
:100E7000B9F98246A169FFF7BBF980464946FFF7F9
:100E80005FF907463146FFF75BF90546E16AFFF770
:100E900057F9E062E0682061A068E060616AE06A9A
:100EA000FFF716FC02D2606AE06206E0D4E90A109D
:100EB000FFF704FC01D2A06AE062E06ABDE8F087B7
:100EC00000B5002015490861C86014204861002061
:100ED0008861C8610846006840F001000860084663
:100EE00040680F4908400D494860084600680D49B0
:100EF00008400A4908600846006820F4802008601D
:100F00000846406820F4FE00486000208860002108
:100F10004FF0006000F058F800BD000000100240E3
:100F20000000FFF8FFFFF6FE2DE9F0410746884676
:100F300014461D46284600F033F8C5F1040007FAB0
:100F400000F60F20284100EA0800064306F00F06CD
:100F5000E21704EBD2625211920002F1E022D2F8C1
:100F600000212146E31704EBD3635B11A4EB431C80
:100F7000012303FA0CF31A432046E31704EBD3636F
:100F80005B119B0003F1E023C3F800210348005DDF
:100F900040EA061001490855BDE8F08100E400E090
:100FA0000146072323EA01021202054B18684FF697
:100FB000FF031840034B18431043014B1860704760
:100FC0000CED00E00000FA05024A0A400243024B21
:100FD0001A60704780FFFF1F08ED00E0204AD269C9
:100FE00042F001021E4BDA611A46926942F0080291
:100FF0009A611C4A126822F0FF021A4B1A601A46C4
:10100000126842F0BB021A60421EDB049A854A1E37
:101010001A851A46128B42F060021A831A46128B06
:1010200042F008021A831A46128C42F001021A8416
:101030001A46128B42F4C0421A831A46128B42F4AB
:1010400000621A831A46128C42F010021A8480221F
:101050001A80D205128842F001021A8070470000FF
:1010600000100240000801400022044B1A70044A9C
:10107000106051600022034B1A6070471800002076
:1010800010000020CC000020002141608160C16080
:101090000161704700B50748074988610748C86182
:1010A0000020086206484862064888620846FFF742
:1010B000EBFF00BD0000C842CC0000205C8F423E28
:1010C00000401C4600401CC610B5002405E0044941
:1010D000085D00F08BFA601CC4B20A2CF7DB10BD6F
:1010E0002001002070B500255E20154908700C20F5
:1010F0004870012088700520C87012480088000AD6
:1011000008711048007848710E488088000A88717C
:101110000C480079C871002408E00948005D0544C6
:101120000749085D00F062FA601CC4B2072CF4DDC8
:10113000C5F3072000F05AFAE8B200F057FA70BD84
:101140002A0100201C0000200022144B1A700028E5
:1011500009DA42F2107202444FF080439A8601226B
:101160000F4B1A6005E04FF08043988600220C4B2D
:101170001A6000290ADA42F210720A444FF08043E2
:101180001A870122064B1B1D1A6006E04FF08043B0
:1011900019870022024B1B1D1A607047180000209F
:1011A000808121420020044908700448008840F0F2
:1011B000010002490880704718000020002C0140FF
:1011C00030B504460025FFF77BFE1F48006840F459
:1011D00080301D49086000BF1B480068400C002893
:1011E000FAD04FF4806018494860A01EC4B2084687
:1011F000406840EA844048600846406840F48030D7
:1012000048601248006840F03200104908600E48FB
:10121000006840F080700C49086000BF0A48006810
:10122000400E0028FAD00848406840F00200064905
:10123000486005E004484068C0F3870505F00305F1
:10124000022DF7D130BD0000001002400020024006
:1012500010B501200749087000204FF080418886B2
:101260000887054908600549C1F884010448FFF76B
:101270000BFF10BD18000020808121420080214218
:10128000CC00002010B51048008800F0010098B193
:101290000E48006814300D49086008460068C821EF
:1012A00090FBF1F201FB120030B90948007808B94F
:1012B00000F0B0FBFFF716FF0348008820F00100A4
:1012C0000149088010BD0000102C01400C000020D6
:1012D0001800002070B51248008800F00100B8B175
:1012E00010480078A0B910494868FFF751FC0F4931
:1012F00048600846FFF79AFD0546FFF752F9044695
:10130000094A1268111B084A12681019FFF71CFFDE
:101310000348008820F001000149088070BD0000EA
:10132000100400401800002010000020CC00002015
:1013300010B51D48D0F84806401C1B49C1F84806A6
:101340000846D0F8480664280CD10020C1F84806A9
:10135000012081F84606084690F8440618B3FFF7C6
:1013600077FF20E0104890F8460670B10E4890F8DC
:10137000440650B90C48D0F848060B49D1F840163D
:10138000884202D1FFF764FF0DE0074890F8470656
:1013900048B10548D0F84816D0F84C06401E8142A6
:1013A00001D1FFF755FF10BD3401002000200B498B
:1013B000C1F84006012081F84406002081F8450666
:1013C000012081F846060020C1F8480681F847064A
:1013D000C1F84C060249086048607047340100209B
:1013E0002400002070B505460C461148C06940F045
:1013F00002000F49C861681E0E490880601E091F5F
:1014000008800C482038008840F001000949203944
:10141000088002231D2201210846FFF785FD0548AB
:101420002C38008840F0010002492C39088070BD3A
:10143000001002402C04004070B505460C460D48D3
:10144000806940F400600B498861681E0A49088081
:10145000601E091F088008482038008840F00100FD
:101460000549203908800223192219461846FFF73A
:101470005BFD70BD001002402C2C014010B5002017
:101480005E22134B1A700C225A7001229A700422A9
:10149000DA7000221A715A719A71DA71002105E02E
:1014A0000B4A525C024490B24A1CD1B20729F7DDC4
:1014B0000246C31700EB13631B0A054C2372C317C4
:1014C00000EB13631B12A0EB0323637210BD00003B
:1014D000200100203E49098801F0080141B13C4942
:1014E000091D09883A49098821F00801384A118004
:1014F0003749098801F01001002968D034490C31BE
:10150000098821F02001324A0C32118030490988C3
:10151000304A11702E49091D098811702E49C96D74
:10152000C1F1140111702C49896D21F001012A4A81
:1015300091651421D165274909780A2903D1012130
:10154000264A117035E023490978254A127811445A
:101550000A291ED1002008E02249095C204A12789D
:101560000244214B9954411CC8B21A490978884257
:10157000F2DB002005E01C49095C1A4A1154411CA9
:10158000C8B2144909788842F5DB0121134A117069
:101590000FE010490978124A1170002005E0114946
:1015A000095C114A1154411CC8B20A4909788842A1
:1015B000F5DB0949896D41F00101074A916504494C
:1015C0000C31098841F02001014A0C32118070472A
:1015D0000038014004000020000002400500002007
:1015E00006000020300000204400002000BF054914
:1015F000098801F040010029F9D00249091D08803D
:1016000070470000003801402248008800F00800C0
:1016100050B1204800881F48001D00881D480088E0
:1016200020F008001B4908801A48008800F01000CC
:1016300070B318480C30008820F0200015490C3198
:10164000088014480088144908701248001D00885A
:1016500008701248C06E20F001001049C8660846A4
:10166000006FC0F132000C49087001200C4908706D
:1016700032200A4908670846C06E40F00100C8667B
:1016800004480C30008840F0200002490C310880EA
:1016900070470000004400400700002000000240A6
:1016A000080000202DE9F05F9D48008800F0080048
:1016B00040B19B48001D00889948008820F0080030
:1016C000974908809648008800F0100000287DD0D7
:1016D00093480C30008820F0200091490C3108809C
:1016E0008F4800888F4908708D48001D0088087059
:1016F0008D48406BC0F1420008708B48006B20F0B1
:1017000001008949086342204863864800782128FF
:101710007ED10120854908708548407851285BD1E9
:101720008349C978090209B2814A927841EA0200E4
:10173000FEF726FF064600227E4BFEF7A4FE044677
:1017400000227D4BFEF72DFE82467C4A7C4BFEF745
:1017500028FE8046FEF796FF7A4908607449497969
:10176000090209B2724A127941EA0200FEF708FF43
:10177000804600226F4BFEF786FE064600226E4B27
:10178000FEF70FFE04466D4A6D4BFEF70AFE8246D9
:10179000FEF778FF6B4948606549C979090209B2CB
:1017A000634A927941EA0200FEF7EAFE804600228F
:1017B000604BFEF768FE064600225F4BFEF7F1FD28
:1017C00004465E4A5E4BFEF7ECFD00E0A6E0824672
:1017D000FEF758FF5B4988605548007B522846D188
:1017E0005349497B524A927B41EA0220FEF7C8FEE8
:1017F000804600224F4BFEF746FE06460022524B23
:10180000FEF7CFFD0446FEF73DFF4E49C86000E0FD
:1018100076E04749C97B464A127C41EA0220FEF73E
:10182000AFFE80460022434BFEF72DFE0646002207
:10183000454BFEF7B6FD0446FEF724FF414908611B
:101840003B49497C3A4A927C41EA0220FEF798FEE5
:1018500080460022374BFEF716FE064600223A4B22
:10186000FEF79FFD0446FEF70DFF364948613048FC
:10187000C07D532844D12E49097E2D4A527E41EA2B
:101880000220FEF77DFE804600222A4BFEF7FBFD7C
:10189000064600222D4BFEF784FD0446FEF7F2FEBD
:1018A000284988612249897E214AD27E41EA022064
:1018B000FEF766FE064600221E4BFEF7E4FD80465C
:1018C0000022224BFEF76DFD0446FEF7DBFE1D49AC
:1018D000C8611749097F164A527F41EA0220FEF784
:1018E0004FFE80460022134BFEF7CDFD0646002238
:1018F000164BFEF756FD0446FEF7C4FE114908627A
:101900000948006B40F001000749086304480C30A7
:10191000008840F0200002490C310880BDE8F09FAB
:101920000048004009000020000002400A0000209A
:101930008A0000200000E040000030409A99999908
:1019400099992340FC00002000409F4000806640A1
:1019500070B504462948B0FBF4F63046FEF70BFE9E
:1019600005462748806940F00400254988610846FB
:10197000C06940F40030C8610846406940F0010089
:1019800048610846006940F4003008610846006973
:1019900020F4003008611B48006820F47F4019499A
:1019A00008600846006840F40B4008602846FEF7CF
:1019B00011FE154908803220144908671248001F9B
:1019C0004867134888670846C06E43F281010843A0
:1019D0000E49C8660C480C30008840F040000A49A7
:1019E0000C3108800223262200210846FFF79CFACA
:1019F00042F21C000449091D088070BD00512502F7
:101A0000001002400008014008440040000002406D
:101A1000580000202DE9F04F89B06846FFF780F9A3
:101A2000DDE90001CDE9020105906846FFF778F98C
:101A3000DDE90001CDE90201049130490A68059908
:101A4000881AFEF78FFD08902C494A680499881A75
:101A5000FEF788FD07900898FEF7D0FDCDE900015C
:101A60000798FEF7CBFD0646DDE9002300F0ACFA4F
:101A700004460022224BFEF794FC224A224BCDE979
:101A80000201FEF700FD8046FEF7FCFD06901F48B0
:101A9000D0F84816D0F84C06801E814202D1DFF8FB
:101AA00070A001E0DFF86CA05046FEF7A7FD0446E9
:101AB0000D4607990846FEF79BFB039008990846D8
:101AC000FEF796FB02900399FEF73AFB8346FEF77A
:101AD00095FD064600F0A2FB804622462B46FEF707
:101AE000A1FD02D2FFF724FC04E04FF4FA5006995E
:101AF000FFF7BAFA09B0BDE8F08F00001C00002023
:101B000000806640A7E8482EFF21094034010020EC
:101B1000000020410000204230B5002100220123B6
:101B20000024274D2C70002006E0264C245C2D2C30
:101B300001D14FF0FF33401C224C245C302CF4DBED
:101B4000204C245C392CF0DC08E01E4C245C01EBBA
:101B5000810504EB4504A4F13001401C194C245CC0
:101B6000302C03DB174C245C392CEEDD5943012368
:101B700006E0144C245C2D2C01D14FF0FF33401CA7
:101B8000104C245C302CF4DB0E4C245C392CF0DC43
:101B900008E00C4C245C02EB820504EB4504A4F144
:101BA0003002401C074C245C302C03DB054C245CC9
:101BB000392CEEDD5A43044C2160626030BD0000D8
:101BC00008000020580000201C00002070B50446CA
:101BD0002948B0FBF4F63046FEF7CDFC0546274811
:101BE000806940F00400254988610846806940F416
:101BF000804088610846406940F00100486108461D
:101C0000C06840F48040C8600846C06820F4804046
:101C1000C8601B48006820F47F60194908600846C6
:101C2000006840F40B6008602846FEF7D3FC1549B5
:101C3000088014201449C8651248001F086613481C
:101C400048660846806D43F2810108430E49886565
:101C50000C480C30008840F040000A490C310880E4
:101C60000223252200210120FFF75EF942F21C0029
:101C70000449091D088070BD00A24A0400100240FA
:101C800004080140083801400000024030000020F4
:101C9000490050EAC12018BF04204A0D18BF40F087
:101CA000010040F2FF72B2EB515F08BF40F002004A
:101CB000012808BF052070472DE9F0414F1E00EBB9
:101CC000C7010446D1E9000115461E4637F0060259
:101CD0000DD02A463346FEF764FB7F1E04EBC70394
:101CE000D3E90023FEF7B6FA37F00602F1D1022F4E
:101CF00025D0042F13D0062F18BFBDE8F0812A4647
:101D00003346FEF74EFBD4E90A23FEF7A3FA2A4630
:101D10003346FEF746FBD4E90823FEF79BFA2A4632
:101D20003346FEF73EFBD4E90623FEF793FA2A4634
:101D30003346FEF736FBD4E90423FEF78BFA2A4636
:101D40003346FEF72EFBD4E90223FEF783FA2A4638
:101D50003346FEF726FBD4E90023BDE8F041FEF749
:101D600079BA0122FEF7E6BDFEF774BA024A0020F6
:101D70001107FEF7DFBD000001FDFFFF02E008C80C
:101D8000121F08C1002AFAD170477047002001E0F5
:101D900001C1121F002AFBD17047000001490860F1
:101DA000704700002C0000202DE9F84F04460D4636
:101DB00021F0004000917349814211DC7249884250
:101DC00001DC06D12CB120462946BDE8F84FFFF7CB
:101DD000C8BF6E48002DCCBF6D496E49BDE8F88F75
:101DE0006D49814211DD6D498142D8BF4FF0FF3608
:101DF0006DDD20462946FFF74BFF042808BFFFF79B
:101E0000B5FF20462946BDE8F88F6549654F25F0A6
:101E10000045814233DD6449814219DD00263246A6
:101E20004FF0804320462946FEF714FA80468A4642
:101E3000012220462946FEF77DFD00223B46FEF7A3
:101E4000AAFA42465346FEF71EFB04460D463EE004
:101E500001260022BA463B4620462946FEF7FAF9FB
:101E600080460F460022534620462946FEF793FA45
:101E700042463B46FEF707FB04460D4627E04B492A
:101E800081421BDDDFF828A10226002253462046AE
:101E90002946FEF786FA00223B46FEF7DBF980462C
:101EA0000F460022534620462946FEF774FA424662
:101EB0003B46FEF7E8FA04460D4608E003262246B4
:101EC0002B4600203B49FEF7DEFA04460D4622462B
:101ED0002B4610461946FEF764FA8B4682460246A8
:101EE0000B46FEF75EFA07460246334888460B4625
:101EF00006217844FFF7E0FE52465B46FEF751FAB2
:101F000082462E488B463A46434605217844FFF7E1
:101F1000D3FE3A464346FEF744FA02460B46002EED
:101F2000504659460CDAFEF795F922462B46FEF745
:101F300038FA01B022462B46BDE8F04FFEF72EBA24
:101F4000FEF788F922462B46FEF72BFA1C4A7A4404
:101F500002EBC603D3E90023FEF71DFA22462B4607
:101F6000FEF719FA174A7A4402EBC603D3E90023B5
:101F7000FEF714FA009A002AB8BF81F00041BDE8CC
:101F8000F88F0000000010440000F07F182D44542A
:101F9000FB21F93FFB21F9BF0000DC3F0000203EA0
:101FA0000000F33F0000F03F0000E63F00800340E8
:101FB0000000F83F0000F0BFDA03000098030000C3
:101FC00036030000FE0200002DE9F04D9446CCF1EE
:101FD000000423F000464CEA0404524F46EAD4744D
:101FE0009A46884621F00042BC4206D8454240EA63
:101FF000050442EAD474BC4204D9BDE8F04D6246FF
:10200000FFF7B2BEAAF14055A5F17F6555EA0C0471
:102010000BD0022404EAAA74434DDFF810E144EA2D
:10202000D87452EA000B04D00CE0BDE8F04DFFF785
:10203000BBBE002C14BF012CBDE8F08D022C30D0AB
:10204000032C32D056EA0C0B0AD0BE4220D1BA4241
:1020500009D126F0804622F080423346114617E02F
:1020600000291ADB25E0DFF8C8B0FB44002C04BFD0
:10207000DBE90001BDE8F08D012C02BFDBE90001C6
:1020800081F00041BDE8F08D022C0AD0032C0CD069
:10209000BA4212D1B8F1000F0BDA23482549BDE846
:1020A000F08D28462449BDE8F08D28467146BDE8EC
:1020B000F08D1D482149BDE8F08D921B12153C2A78
:1020C000C4BF19481D490EDCBAF1000FBEBF12F1A2
:1020D0003C0F0020014606DB6246FEF7D4F921F0F2
:1020E0000041FFF761FE002C08BFBDE8F08D012C18
:1020F00004BF81F00041BDE8F08D114A114B022C64
:1021000007D0FEF748F92A46BDE8F04D0A4BFEF726
:1021100042B9FEF740F92A46BDE8F04D064BFEF7FE
:102120003DB900000000F07F182D4454FB2109C088
:1021300092020000FB21F9BFFB210940FB21F93F7E
:10214000075C143326A6A13C4FF0E021096921F079
:1021500004014FF0E0221161C21700EB5272C2F38A
:10216000C702074B1A701946097801EB4102C2EB0E
:10217000C1114FF6FF7202EAC101024A1180704795
:10218000000000200200002001460D4A12884A4348
:102190004FF0E0235A6100229A6101221A6100BFC8
:1021A0004FF0E022106900F001021AB100F4803211
:1021B000002AF5D000224FF0E0231A619A6170479F
:1021C000020000200920FEF7FBFF4820FFF7BCFFBC
:1021D000FEF77EFCFEF75EFFFFF750F9FFF7E6F82B
:1021E000FFF736F84FF47A70FFF7CEFF4FF47A70AE
:1021F000FFF7CAFF4FF47A70FFF7C6FF09E0054802
:10220000007808B1FFF788FC0348007808B1FEF7B2
:102210000DFDF4E708000020050000202DE9F04145
:1022200006460F46FEF713FB04000D4618BF0120BB
:10223000284320F00040C0F17F6000F1E040C00F73
:102240000ED0301C18BF0120384320F00040C0F1F0
:102250007F6000F1E040C00F04BF0120FFF79EFD4A
:1022600020462946BDE8F0814FBB610567ACDD3FE4
:10227000182D4454FB21E93F9BF681D20B73EF3FAD
:10228000182D4454FB21F93FE2652F227F2B7A3C25
:10229000075C143326A6813CBDCBF07A8807703CDE
:1022A000075C143326A6913CC4EB98999999C9BF51
:1022B000711623FEC671BCBF6D9A74AFF2B0B3BF86
:1022C0009AFDDE522DDEADBF2F6C6A2C44B4A2BF46
:1022D0000D5555555555D53FFF8300922449C23FB2
:1022E0006E204CC5CD45B73F513DD0A0660DB13FE6
:1022F000EB0D76244B7BA93F11DA22E33AAD903FF8
:10230000000000000000000028230008000000205A
:10231000300000007C1D0008582300083000002019
:10232000580B00008C1D0008000000000000000099
:10233000000000000000000000000000000000009D
:10234000000000000000000000000000000000008D
:08235000000000000000000085
:04000005080000ED02
:00000001FF
